{
	"module_20_challenge/JointSaving_SmartContract/joint_savings.sol": {
		"JointSavings": {
			"abi": [
				{
					"constant": false,
					"inputs": [
						{
							"name": "amount",
							"type": "uint256"
						},
						{
							"name": "recipient",
							"type": "address"
						}
					],
					"name": "withdraw",
					"outputs": [],
					"payable": false,
					"stateMutability": "nonpayable",
					"type": "function"
				},
				{
					"constant": false,
					"inputs": [
						{
							"name": "account1",
							"type": "address"
						},
						{
							"name": "account2",
							"type": "address"
						}
					],
					"name": "setAccounts",
					"outputs": [],
					"payable": false,
					"stateMutability": "nonpayable",
					"type": "function"
				},
				{
					"constant": true,
					"inputs": [],
					"name": "contractBalance",
					"outputs": [
						{
							"name": "",
							"type": "uint256"
						}
					],
					"payable": false,
					"stateMutability": "view",
					"type": "function"
				},
				{
					"constant": true,
					"inputs": [],
					"name": "lastWithdrawAmount",
					"outputs": [
						{
							"name": "",
							"type": "uint256"
						}
					],
					"payable": false,
					"stateMutability": "view",
					"type": "function"
				},
				{
					"constant": false,
					"inputs": [],
					"name": "deposit",
					"outputs": [],
					"payable": true,
					"stateMutability": "payable",
					"type": "function"
				},
				{
					"constant": true,
					"inputs": [],
					"name": "lastToWithdraw",
					"outputs": [
						{
							"name": "",
							"type": "address"
						}
					],
					"payable": false,
					"stateMutability": "view",
					"type": "function"
				},
				{
					"payable": true,
					"stateMutability": "payable",
					"type": "fallback"
				}
			],
			"devdoc": {
				"methods": {}
			},
			"evm": {
				"assembly": "    /* \"module_20_challenge/JointSaving_SmartContract/joint_savings.sol\":861:2304  contract JointSavings {... */\n  mstore(0x40, 0x80)\n  callvalue\n    /* \"--CODEGEN--\":8:17   */\n  dup1\n    /* \"--CODEGEN--\":5:7   */\n  iszero\n  tag_1\n  jumpi\n    /* \"--CODEGEN--\":30:31   */\n  0x00\n    /* \"--CODEGEN--\":27:28   */\n  dup1\n    /* \"--CODEGEN--\":20:32   */\n  revert\n    /* \"--CODEGEN--\":5:7   */\ntag_1:\n    /* \"module_20_challenge/JointSaving_SmartContract/joint_savings.sol\":861:2304  contract JointSavings {... */\n  pop\n  dataSize(sub_0)\n  dup1\n  dataOffset(sub_0)\n  0x00\n  codecopy\n  0x00\n  return\nstop\n\nsub_0: assembly {\n        /* \"module_20_challenge/JointSaving_SmartContract/joint_savings.sol\":861:2304  contract JointSavings {... */\n      mstore(0x40, 0x80)\n      jumpi(tag_1, lt(calldatasize, 0x04))\n      shr(0xe0, calldataload(0x00))\n      dup1\n      0xf714ce\n      eq\n      tag_2\n      jumpi\n      dup1\n      0x43e02605\n      eq\n      tag_3\n      jumpi\n      dup1\n      0x8b7afe2e\n      eq\n      tag_4\n      jumpi\n      dup1\n      0xb831461e\n      eq\n      tag_5\n      jumpi\n      dup1\n      0xd0e30db0\n      eq\n      tag_6\n      jumpi\n      dup1\n      0xe15e1c95\n      eq\n      tag_7\n      jumpi\n    tag_1:\n      stop\n        /* \"module_20_challenge/JointSaving_SmartContract/joint_savings.sol\":1542:2009  function withdraw(uint amount, address payable recipient) public {... */\n    tag_2:\n      callvalue\n        /* \"--CODEGEN--\":8:17   */\n      dup1\n        /* \"--CODEGEN--\":5:7   */\n      iszero\n      tag_10\n      jumpi\n        /* \"--CODEGEN--\":30:31   */\n      0x00\n        /* \"--CODEGEN--\":27:28   */\n      dup1\n        /* \"--CODEGEN--\":20:32   */\n      revert\n        /* \"--CODEGEN--\":5:7   */\n    tag_10:\n        /* \"module_20_challenge/JointSaving_SmartContract/joint_savings.sol\":1542:2009  function withdraw(uint amount, address payable recipient) public {... */\n      pop\n      tag_11\n      0x04\n      dup1\n      calldatasize\n      sub\n        /* \"--CODEGEN--\":13:15   */\n      0x40\n        /* \"--CODEGEN--\":8:11   */\n      dup2\n        /* \"--CODEGEN--\":5:16   */\n      lt\n        /* \"--CODEGEN--\":2:4   */\n      iszero\n      tag_12\n      jumpi\n        /* \"--CODEGEN--\":29:30   */\n      0x00\n        /* \"--CODEGEN--\":26:27   */\n      dup1\n        /* \"--CODEGEN--\":19:31   */\n      revert\n        /* \"--CODEGEN--\":2:4   */\n    tag_12:\n        /* \"module_20_challenge/JointSaving_SmartContract/joint_savings.sol\":1542:2009  function withdraw(uint amount, address payable recipient) public {... */\n      dup2\n      add\n      swap1\n      dup1\n      dup1\n      calldataload\n      swap1\n      0x20\n      add\n      swap1\n      swap3\n      swap2\n      swap1\n      dup1\n      calldataload\n      0xffffffffffffffffffffffffffffffffffffffff\n      and\n      swap1\n      0x20\n      add\n      swap1\n      swap3\n      swap2\n      swap1\n      pop\n      pop\n      pop\n      tag_13\n      jump\t// in\n    tag_11:\n      stop\n        /* \"module_20_challenge/JointSaving_SmartContract/joint_savings.sol\":2112:2261  function setAccounts(address payable account1, address payable account2) public{... */\n    tag_3:\n      callvalue\n        /* \"--CODEGEN--\":8:17   */\n      dup1\n        /* \"--CODEGEN--\":5:7   */\n      iszero\n      tag_14\n      jumpi\n        /* \"--CODEGEN--\":30:31   */\n      0x00\n        /* \"--CODEGEN--\":27:28   */\n      dup1\n        /* \"--CODEGEN--\":20:32   */\n      revert\n        /* \"--CODEGEN--\":5:7   */\n    tag_14:\n        /* \"module_20_challenge/JointSaving_SmartContract/joint_savings.sol\":2112:2261  function setAccounts(address payable account1, address payable account2) public{... */\n      pop\n      tag_15\n      0x04\n      dup1\n      calldatasize\n      sub\n        /* \"--CODEGEN--\":13:15   */\n      0x40\n        /* \"--CODEGEN--\":8:11   */\n      dup2\n        /* \"--CODEGEN--\":5:16   */\n      lt\n        /* \"--CODEGEN--\":2:4   */\n      iszero\n      tag_16\n      jumpi\n        /* \"--CODEGEN--\":29:30   */\n      0x00\n        /* \"--CODEGEN--\":26:27   */\n      dup1\n        /* \"--CODEGEN--\":19:31   */\n      revert\n        /* \"--CODEGEN--\":2:4   */\n    tag_16:\n        /* \"module_20_challenge/JointSaving_SmartContract/joint_savings.sol\":2112:2261  function setAccounts(address payable account1, address payable account2) public{... */\n      dup2\n      add\n      swap1\n      dup1\n      dup1\n      calldataload\n      0xffffffffffffffffffffffffffffffffffffffff\n      and\n      swap1\n      0x20\n      add\n      swap1\n      swap3\n      swap2\n      swap1\n      dup1\n      calldataload\n      0xffffffffffffffffffffffffffffffffffffffff\n      and\n      swap1\n      0x20\n      add\n      swap1\n      swap3\n      swap2\n      swap1\n      pop\n      pop\n      pop\n      tag_17\n      jump\t// in\n    tag_15:\n      stop\n        /* \"module_20_challenge/JointSaving_SmartContract/joint_savings.sol\":1338:1365  uint public contractBalance */\n    tag_4:\n      callvalue\n        /* \"--CODEGEN--\":8:17   */\n      dup1\n        /* \"--CODEGEN--\":5:7   */\n      iszero\n      tag_18\n      jumpi\n        /* \"--CODEGEN--\":30:31   */\n      0x00\n        /* \"--CODEGEN--\":27:28   */\n      dup1\n        /* \"--CODEGEN--\":20:32   */\n      revert\n        /* \"--CODEGEN--\":5:7   */\n    tag_18:\n        /* \"module_20_challenge/JointSaving_SmartContract/joint_savings.sol\":1338:1365  uint public contractBalance */\n      pop\n      tag_19\n      tag_20\n      jump\t// in\n    tag_19:\n      mload(0x40)\n      dup1\n      dup3\n      dup2\n      mstore\n      0x20\n      add\n      swap2\n      pop\n      pop\n      mload(0x40)\n      dup1\n      swap2\n      sub\n      swap1\n      return\n        /* \"module_20_challenge/JointSaving_SmartContract/joint_savings.sol\":1302:1332  uint public lastWithdrawAmount */\n    tag_5:\n      callvalue\n        /* \"--CODEGEN--\":8:17   */\n      dup1\n        /* \"--CODEGEN--\":5:7   */\n      iszero\n      tag_21\n      jumpi\n        /* \"--CODEGEN--\":30:31   */\n      0x00\n        /* \"--CODEGEN--\":27:28   */\n      dup1\n        /* \"--CODEGEN--\":20:32   */\n      revert\n        /* \"--CODEGEN--\":5:7   */\n    tag_21:\n        /* \"module_20_challenge/JointSaving_SmartContract/joint_savings.sol\":1302:1332  uint public lastWithdrawAmount */\n      pop\n      tag_22\n      tag_23\n      jump\t// in\n    tag_22:\n      mload(0x40)\n      dup1\n      dup3\n      dup2\n      mstore\n      0x20\n      add\n      swap2\n      pop\n      pop\n      mload(0x40)\n      dup1\n      swap2\n      sub\n      swap1\n      return\n        /* \"module_20_challenge/JointSaving_SmartContract/joint_savings.sol\":2015:2106  function deposit() public payable {... */\n    tag_6:\n      tag_24\n      tag_25\n      jump\t// in\n    tag_24:\n      stop\n        /* \"module_20_challenge/JointSaving_SmartContract/joint_savings.sol\":1267:1296  address public lastToWithdraw */\n    tag_7:\n      callvalue\n        /* \"--CODEGEN--\":8:17   */\n      dup1\n        /* \"--CODEGEN--\":5:7   */\n      iszero\n      tag_26\n      jumpi\n        /* \"--CODEGEN--\":30:31   */\n      0x00\n        /* \"--CODEGEN--\":27:28   */\n      dup1\n        /* \"--CODEGEN--\":20:32   */\n      revert\n        /* \"--CODEGEN--\":5:7   */\n    tag_26:\n        /* \"module_20_challenge/JointSaving_SmartContract/joint_savings.sol\":1267:1296  address public lastToWithdraw */\n      pop\n      tag_27\n      tag_28\n      jump\t// in\n    tag_27:\n      mload(0x40)\n      dup1\n      dup3\n      0xffffffffffffffffffffffffffffffffffffffff\n      and\n      0xffffffffffffffffffffffffffffffffffffffff\n      and\n      dup2\n      mstore\n      0x20\n      add\n      swap2\n      pop\n      pop\n      mload(0x40)\n      dup1\n      swap2\n      sub\n      swap1\n      return\n        /* \"module_20_challenge/JointSaving_SmartContract/joint_savings.sol\":1542:2009  function withdraw(uint amount, address payable recipient) public {... */\n    tag_13:\n        /* \"module_20_challenge/JointSaving_SmartContract/joint_savings.sol\":1647:1657  accountOne */\n      0x00\n      dup1\n      swap1\n      sload\n      swap1\n      0x0100\n      exp\n      swap1\n      div\n      0xffffffffffffffffffffffffffffffffffffffff\n      and\n        /* \"module_20_challenge/JointSaving_SmartContract/joint_savings.sol\":1634:1657  recipient == accountOne */\n      0xffffffffffffffffffffffffffffffffffffffff\n      and\n        /* \"module_20_challenge/JointSaving_SmartContract/joint_savings.sol\":1634:1643  recipient */\n      dup2\n        /* \"module_20_challenge/JointSaving_SmartContract/joint_savings.sol\":1634:1657  recipient == accountOne */\n      0xffffffffffffffffffffffffffffffffffffffff\n      and\n      eq\n        /* \"module_20_challenge/JointSaving_SmartContract/joint_savings.sol\":1634:1684  recipient == accountOne || recipient == accountTwo */\n      dup1\n      tag_30\n      jumpi\n      pop\n        /* \"module_20_challenge/JointSaving_SmartContract/joint_savings.sol\":1674:1684  accountTwo */\n      0x01\n      0x00\n      swap1\n      sload\n      swap1\n      0x0100\n      exp\n      swap1\n      div\n      0xffffffffffffffffffffffffffffffffffffffff\n      and\n        /* \"module_20_challenge/JointSaving_SmartContract/joint_savings.sol\":1661:1684  recipient == accountTwo */\n      0xffffffffffffffffffffffffffffffffffffffff\n      and\n        /* \"module_20_challenge/JointSaving_SmartContract/joint_savings.sol\":1661:1670  recipient */\n      dup2\n        /* \"module_20_challenge/JointSaving_SmartContract/joint_savings.sol\":1661:1684  recipient == accountTwo */\n      0xffffffffffffffffffffffffffffffffffffffff\n      and\n      eq\n        /* \"module_20_challenge/JointSaving_SmartContract/joint_savings.sol\":1634:1684  recipient == accountOne || recipient == accountTwo */\n    tag_30:\n        /* \"module_20_challenge/JointSaving_SmartContract/joint_savings.sol\":1626:1716  require(recipient == accountOne || recipient == accountTwo, \"You don't own this account!\") */\n      iszero\n      iszero\n      tag_31\n      jumpi\n      mload(0x40)\n      0x08c379a000000000000000000000000000000000000000000000000000000000\n      dup2\n      mstore\n      0x04\n      add\n      dup1\n      dup1\n      0x20\n      add\n      dup3\n      dup2\n      sub\n      dup3\n      mstore\n      0x1b\n      dup2\n      mstore\n      0x20\n      add\n      dup1\n      0x596f7520646f6e2774206f776e2074686973206163636f756e74210000000000\n      dup2\n      mstore\n      pop\n      0x20\n      add\n      swap2\n      pop\n      pop\n      mload(0x40)\n      dup1\n      swap2\n      sub\n      swap1\n      revert\n    tag_31:\n        /* \"module_20_challenge/JointSaving_SmartContract/joint_savings.sol\":1759:1765  amount */\n      dup2\n        /* \"module_20_challenge/JointSaving_SmartContract/joint_savings.sol\":1742:1746  this */\n      address\n        /* \"module_20_challenge/JointSaving_SmartContract/joint_savings.sol\":1734:1755  address(this).balance */\n      0xffffffffffffffffffffffffffffffffffffffff\n      and\n      balance\n        /* \"module_20_challenge/JointSaving_SmartContract/joint_savings.sol\":1734:1765  address(this).balance >= amount */\n      lt\n      iszero\n        /* \"module_20_challenge/JointSaving_SmartContract/joint_savings.sol\":1726:1789  require(address(this).balance >= amount,\"Insufficient funds!`\") */\n      iszero\n      iszero\n      tag_32\n      jumpi\n      mload(0x40)\n      0x08c379a000000000000000000000000000000000000000000000000000000000\n      dup2\n      mstore\n      0x04\n      add\n      dup1\n      dup1\n      0x20\n      add\n      dup3\n      dup2\n      sub\n      dup3\n      mstore\n      0x14\n      dup2\n      mstore\n      0x20\n      add\n      dup1\n      0x496e73756666696369656e742066756e64732160000000000000000000000000\n      dup2\n      mstore\n      pop\n      0x20\n      add\n      swap2\n      pop\n      pop\n      mload(0x40)\n      dup1\n      swap2\n      sub\n      swap1\n      revert\n    tag_32:\n        /* \"module_20_challenge/JointSaving_SmartContract/joint_savings.sol\":1820:1829  recipient */\n      dup1\n        /* \"module_20_challenge/JointSaving_SmartContract/joint_savings.sol\":1802:1829  lastToWithdraw != recipient */\n      0xffffffffffffffffffffffffffffffffffffffff\n      and\n        /* \"module_20_challenge/JointSaving_SmartContract/joint_savings.sol\":1802:1816  lastToWithdraw */\n      0x02\n      0x00\n      swap1\n      sload\n      swap1\n      0x0100\n      exp\n      swap1\n      div\n      0xffffffffffffffffffffffffffffffffffffffff\n      and\n        /* \"module_20_challenge/JointSaving_SmartContract/joint_savings.sol\":1802:1829  lastToWithdraw != recipient */\n      0xffffffffffffffffffffffffffffffffffffffff\n      and\n      eq\n      iszero\n        /* \"module_20_challenge/JointSaving_SmartContract/joint_savings.sol\":1799:1881  if(lastToWithdraw != recipient){... */\n      iszero\n      tag_33\n      jumpi\n        /* \"module_20_challenge/JointSaving_SmartContract/joint_savings.sol\":1861:1870  recipient */\n      dup1\n        /* \"module_20_challenge/JointSaving_SmartContract/joint_savings.sol\":1844:1858  lastToWithdraw */\n      0x02\n      0x00\n        /* \"module_20_challenge/JointSaving_SmartContract/joint_savings.sol\":1844:1870  lastToWithdraw = recipient */\n      0x0100\n      exp\n      dup2\n      sload\n      dup2\n      0xffffffffffffffffffffffffffffffffffffffff\n      mul\n      not\n      and\n      swap1\n      dup4\n      0xffffffffffffffffffffffffffffffffffffffff\n      and\n      mul\n      or\n      swap1\n      sstore\n      pop\n        /* \"module_20_challenge/JointSaving_SmartContract/joint_savings.sol\":1799:1881  if(lastToWithdraw != recipient){... */\n    tag_33:\n        /* \"module_20_challenge/JointSaving_SmartContract/joint_savings.sol\":1890:1899  recipient */\n      dup1\n        /* \"module_20_challenge/JointSaving_SmartContract/joint_savings.sol\":1890:1908  recipient.transfer */\n      0xffffffffffffffffffffffffffffffffffffffff\n      and\n        /* \"module_20_challenge/JointSaving_SmartContract/joint_savings.sol\":1890:1916  recipient.transfer(amount) */\n      0x08fc\n        /* \"module_20_challenge/JointSaving_SmartContract/joint_savings.sol\":1909:1915  amount */\n      dup4\n        /* \"module_20_challenge/JointSaving_SmartContract/joint_savings.sol\":1890:1916  recipient.transfer(amount) */\n      swap1\n      dup2\n      iszero\n      mul\n      swap1\n      mload(0x40)\n      0x00\n      mload(0x40)\n      dup1\n      dup4\n      sub\n      dup2\n      dup6\n      dup9\n      dup9\n      call\n      swap4\n      pop\n      pop\n      pop\n      pop\n      iszero\n        /* \"--CODEGEN--\":8:17   */\n      dup1\n        /* \"--CODEGEN--\":5:7   */\n      iszero\n      tag_34\n      jumpi\n        /* \"--CODEGEN--\":45:61   */\n      returndatasize\n        /* \"--CODEGEN--\":42:43   */\n      0x00\n        /* \"--CODEGEN--\":39:40   */\n      dup1\n        /* \"--CODEGEN--\":24:62   */\n      returndatacopy\n        /* \"--CODEGEN--\":77:93   */\n      returndatasize\n        /* \"--CODEGEN--\":74:75   */\n      0x00\n        /* \"--CODEGEN--\":67:94   */\n      revert\n        /* \"--CODEGEN--\":5:7   */\n    tag_34:\n        /* \"module_20_challenge/JointSaving_SmartContract/joint_savings.sol\":1890:1916  recipient.transfer(amount) */\n      pop\n        /* \"module_20_challenge/JointSaving_SmartContract/joint_savings.sol\":1947:1953  amount */\n      dup2\n        /* \"module_20_challenge/JointSaving_SmartContract/joint_savings.sol\":1926:1944  lastWithdrawAmount */\n      0x03\n        /* \"module_20_challenge/JointSaving_SmartContract/joint_savings.sol\":1926:1953  lastWithdrawAmount = amount */\n      dup2\n      swap1\n      sstore\n      pop\n        /* \"module_20_challenge/JointSaving_SmartContract/joint_savings.sol\":1989:1993  this */\n      address\n        /* \"module_20_challenge/JointSaving_SmartContract/joint_savings.sol\":1981:2002  address(this).balance */\n      0xffffffffffffffffffffffffffffffffffffffff\n      and\n      balance\n        /* \"module_20_challenge/JointSaving_SmartContract/joint_savings.sol\":1963:1978  contractBalance */\n      0x04\n        /* \"module_20_challenge/JointSaving_SmartContract/joint_savings.sol\":1963:2002  contractBalance = address(this).balance */\n      dup2\n      swap1\n      sstore\n      pop\n        /* \"module_20_challenge/JointSaving_SmartContract/joint_savings.sol\":1542:2009  function withdraw(uint amount, address payable recipient) public {... */\n      pop\n      pop\n      jump\t// out\n        /* \"module_20_challenge/JointSaving_SmartContract/joint_savings.sol\":2112:2261  function setAccounts(address payable account1, address payable account2) public{... */\n    tag_17:\n        /* \"module_20_challenge/JointSaving_SmartContract/joint_savings.sol\":2215:2223  account1 */\n      dup2\n        /* \"module_20_challenge/JointSaving_SmartContract/joint_savings.sol\":2202:2212  accountOne */\n      0x00\n      dup1\n        /* \"module_20_challenge/JointSaving_SmartContract/joint_savings.sol\":2202:2223  accountOne = account1 */\n      0x0100\n      exp\n      dup2\n      sload\n      dup2\n      0xffffffffffffffffffffffffffffffffffffffff\n      mul\n      not\n      and\n      swap1\n      dup4\n      0xffffffffffffffffffffffffffffffffffffffff\n      and\n      mul\n      or\n      swap1\n      sstore\n      pop\n        /* \"module_20_challenge/JointSaving_SmartContract/joint_savings.sol\":2246:2254  account2 */\n      dup1\n        /* \"module_20_challenge/JointSaving_SmartContract/joint_savings.sol\":2233:2243  accountTwo */\n      0x01\n      0x00\n        /* \"module_20_challenge/JointSaving_SmartContract/joint_savings.sol\":2233:2254  accountTwo = account2 */\n      0x0100\n      exp\n      dup2\n      sload\n      dup2\n      0xffffffffffffffffffffffffffffffffffffffff\n      mul\n      not\n      and\n      swap1\n      dup4\n      0xffffffffffffffffffffffffffffffffffffffff\n      and\n      mul\n      or\n      swap1\n      sstore\n      pop\n        /* \"module_20_challenge/JointSaving_SmartContract/joint_savings.sol\":2112:2261  function setAccounts(address payable account1, address payable account2) public{... */\n      pop\n      pop\n      jump\t// out\n        /* \"module_20_challenge/JointSaving_SmartContract/joint_savings.sol\":1338:1365  uint public contractBalance */\n    tag_20:\n      sload(0x04)\n      dup2\n      jump\t// out\n        /* \"module_20_challenge/JointSaving_SmartContract/joint_savings.sol\":1302:1332  uint public lastWithdrawAmount */\n    tag_23:\n      sload(0x03)\n      dup2\n      jump\t// out\n        /* \"module_20_challenge/JointSaving_SmartContract/joint_savings.sol\":2015:2106  function deposit() public payable {... */\n    tag_25:\n        /* \"module_20_challenge/JointSaving_SmartContract/joint_savings.sol\":2086:2090  this */\n      address\n        /* \"module_20_challenge/JointSaving_SmartContract/joint_savings.sol\":2078:2099  address(this).balance */\n      0xffffffffffffffffffffffffffffffffffffffff\n      and\n      balance\n        /* \"module_20_challenge/JointSaving_SmartContract/joint_savings.sol\":2060:2075  contractBalance */\n      0x04\n        /* \"module_20_challenge/JointSaving_SmartContract/joint_savings.sol\":2060:2099  contractBalance = address(this).balance */\n      dup2\n      swap1\n      sstore\n      pop\n        /* \"module_20_challenge/JointSaving_SmartContract/joint_savings.sol\":2015:2106  function deposit() public payable {... */\n      jump\t// out\n        /* \"module_20_challenge/JointSaving_SmartContract/joint_savings.sol\":1267:1296  address public lastToWithdraw */\n    tag_28:\n      0x02\n      0x00\n      swap1\n      sload\n      swap1\n      0x0100\n      exp\n      swap1\n      div\n      0xffffffffffffffffffffffffffffffffffffffff\n      and\n      dup2\n      jump\t// out\n\n    auxdata: 0xa165627a7a7230582011bd6c0ebc0bcc9e4adec2c24478a7fa5ac7a4ca5a0f876bd0ed95cec106e63c0029\n}\n",
				"bytecode": {
					"linkReferences": {},
					"object": "608060405234801561001057600080fd5b50610590806100206000396000f3fe6080604052600436106100545760003560e01c8062f714ce1461005657806343e02605146100b15780638b7afe2e14610122578063b831461e1461014d578063d0e30db014610178578063e15e1c9514610182575b005b34801561006257600080fd5b506100af6004803603604081101561007957600080fd5b8101908080359060200190929190803573ffffffffffffffffffffffffffffffffffffffff1690602001909291905050506101d9565b005b3480156100bd57600080fd5b50610120600480360360408110156100d457600080fd5b81019080803573ffffffffffffffffffffffffffffffffffffffff169060200190929190803573ffffffffffffffffffffffffffffffffffffffff16906020019092919050505061048d565b005b34801561012e57600080fd5b50610137610512565b6040518082815260200191505060405180910390f35b34801561015957600080fd5b50610162610518565b6040518082815260200191505060405180910390f35b61018061051e565b005b34801561018e57600080fd5b5061019761053e565b604051808273ffffffffffffffffffffffffffffffffffffffff1673ffffffffffffffffffffffffffffffffffffffff16815260200191505060405180910390f35b6000809054906101000a900473ffffffffffffffffffffffffffffffffffffffff1673ffffffffffffffffffffffffffffffffffffffff168173ffffffffffffffffffffffffffffffffffffffff1614806102815750600160009054906101000a900473ffffffffffffffffffffffffffffffffffffffff1673ffffffffffffffffffffffffffffffffffffffff168173ffffffffffffffffffffffffffffffffffffffff16145b15156102f5576040517f08c379a000000000000000000000000000000000000000000000000000000000815260040180806020018281038252601b8152602001807f596f7520646f6e2774206f776e2074686973206163636f756e7421000000000081525060200191505060405180910390fd5b813073ffffffffffffffffffffffffffffffffffffffff163110151515610384576040517f08c379a00000000000000000000000000000000000000000000000000000000081526004018080602001828103825260148152602001807f496e73756666696369656e742066756e6473216000000000000000000000000081525060200191505060405180910390fd5b8073ffffffffffffffffffffffffffffffffffffffff16600260009054906101000a900473ffffffffffffffffffffffffffffffffffffffff1673ffffffffffffffffffffffffffffffffffffffff1614151561041d5780600260006101000a81548173ffffffffffffffffffffffffffffffffffffffff021916908373ffffffffffffffffffffffffffffffffffffffff1602179055505b8073ffffffffffffffffffffffffffffffffffffffff166108fc839081150290604051600060405180830381858888f19350505050158015610463573d6000803e3d6000fd5b50816003819055503073ffffffffffffffffffffffffffffffffffffffff16316004819055505050565b816000806101000a81548173ffffffffffffffffffffffffffffffffffffffff021916908373ffffffffffffffffffffffffffffffffffffffff16021790555080600160006101000a81548173ffffffffffffffffffffffffffffffffffffffff021916908373ffffffffffffffffffffffffffffffffffffffff1602179055505050565b60045481565b60035481565b3073ffffffffffffffffffffffffffffffffffffffff1631600481905550565b600260009054906101000a900473ffffffffffffffffffffffffffffffffffffffff168156fea165627a7a7230582011bd6c0ebc0bcc9e4adec2c24478a7fa5ac7a4ca5a0f876bd0ed95cec106e63c0029",
					"opcodes": "PUSH1 0x80 PUSH1 0x40 MSTORE CALLVALUE DUP1 ISZERO PUSH2 0x10 JUMPI PUSH1 0x0 DUP1 REVERT JUMPDEST POP PUSH2 0x590 DUP1 PUSH2 0x20 PUSH1 0x0 CODECOPY PUSH1 0x0 RETURN INVALID PUSH1 0x80 PUSH1 0x40 MSTORE PUSH1 0x4 CALLDATASIZE LT PUSH2 0x54 JUMPI PUSH1 0x0 CALLDATALOAD PUSH1 0xE0 SHR DUP1 PUSH3 0xF714CE EQ PUSH2 0x56 JUMPI DUP1 PUSH4 0x43E02605 EQ PUSH2 0xB1 JUMPI DUP1 PUSH4 0x8B7AFE2E EQ PUSH2 0x122 JUMPI DUP1 PUSH4 0xB831461E EQ PUSH2 0x14D JUMPI DUP1 PUSH4 0xD0E30DB0 EQ PUSH2 0x178 JUMPI DUP1 PUSH4 0xE15E1C95 EQ PUSH2 0x182 JUMPI JUMPDEST STOP JUMPDEST CALLVALUE DUP1 ISZERO PUSH2 0x62 JUMPI PUSH1 0x0 DUP1 REVERT JUMPDEST POP PUSH2 0xAF PUSH1 0x4 DUP1 CALLDATASIZE SUB PUSH1 0x40 DUP2 LT ISZERO PUSH2 0x79 JUMPI PUSH1 0x0 DUP1 REVERT JUMPDEST DUP2 ADD SWAP1 DUP1 DUP1 CALLDATALOAD SWAP1 PUSH1 0x20 ADD SWAP1 SWAP3 SWAP2 SWAP1 DUP1 CALLDATALOAD PUSH20 0xFFFFFFFFFFFFFFFFFFFFFFFFFFFFFFFFFFFFFFFF AND SWAP1 PUSH1 0x20 ADD SWAP1 SWAP3 SWAP2 SWAP1 POP POP POP PUSH2 0x1D9 JUMP JUMPDEST STOP JUMPDEST CALLVALUE DUP1 ISZERO PUSH2 0xBD JUMPI PUSH1 0x0 DUP1 REVERT JUMPDEST POP PUSH2 0x120 PUSH1 0x4 DUP1 CALLDATASIZE SUB PUSH1 0x40 DUP2 LT ISZERO PUSH2 0xD4 JUMPI PUSH1 0x0 DUP1 REVERT JUMPDEST DUP2 ADD SWAP1 DUP1 DUP1 CALLDATALOAD PUSH20 0xFFFFFFFFFFFFFFFFFFFFFFFFFFFFFFFFFFFFFFFF AND SWAP1 PUSH1 0x20 ADD SWAP1 SWAP3 SWAP2 SWAP1 DUP1 CALLDATALOAD PUSH20 0xFFFFFFFFFFFFFFFFFFFFFFFFFFFFFFFFFFFFFFFF AND SWAP1 PUSH1 0x20 ADD SWAP1 SWAP3 SWAP2 SWAP1 POP POP POP PUSH2 0x48D JUMP JUMPDEST STOP JUMPDEST CALLVALUE DUP1 ISZERO PUSH2 0x12E JUMPI PUSH1 0x0 DUP1 REVERT JUMPDEST POP PUSH2 0x137 PUSH2 0x512 JUMP JUMPDEST PUSH1 0x40 MLOAD DUP1 DUP3 DUP2 MSTORE PUSH1 0x20 ADD SWAP2 POP POP PUSH1 0x40 MLOAD DUP1 SWAP2 SUB SWAP1 RETURN JUMPDEST CALLVALUE DUP1 ISZERO PUSH2 0x159 JUMPI PUSH1 0x0 DUP1 REVERT JUMPDEST POP PUSH2 0x162 PUSH2 0x518 JUMP JUMPDEST PUSH1 0x40 MLOAD DUP1 DUP3 DUP2 MSTORE PUSH1 0x20 ADD SWAP2 POP POP PUSH1 0x40 MLOAD DUP1 SWAP2 SUB SWAP1 RETURN JUMPDEST PUSH2 0x180 PUSH2 0x51E JUMP JUMPDEST STOP JUMPDEST CALLVALUE DUP1 ISZERO PUSH2 0x18E JUMPI PUSH1 0x0 DUP1 REVERT JUMPDEST POP PUSH2 0x197 PUSH2 0x53E JUMP JUMPDEST PUSH1 0x40 MLOAD DUP1 DUP3 PUSH20 0xFFFFFFFFFFFFFFFFFFFFFFFFFFFFFFFFFFFFFFFF AND PUSH20 0xFFFFFFFFFFFFFFFFFFFFFFFFFFFFFFFFFFFFFFFF AND DUP2 MSTORE PUSH1 0x20 ADD SWAP2 POP POP PUSH1 0x40 MLOAD DUP1 SWAP2 SUB SWAP1 RETURN JUMPDEST PUSH1 0x0 DUP1 SWAP1 SLOAD SWAP1 PUSH2 0x100 EXP SWAP1 DIV PUSH20 0xFFFFFFFFFFFFFFFFFFFFFFFFFFFFFFFFFFFFFFFF AND PUSH20 0xFFFFFFFFFFFFFFFFFFFFFFFFFFFFFFFFFFFFFFFF AND DUP2 PUSH20 0xFFFFFFFFFFFFFFFFFFFFFFFFFFFFFFFFFFFFFFFF AND EQ DUP1 PUSH2 0x281 JUMPI POP PUSH1 0x1 PUSH1 0x0 SWAP1 SLOAD SWAP1 PUSH2 0x100 EXP SWAP1 DIV PUSH20 0xFFFFFFFFFFFFFFFFFFFFFFFFFFFFFFFFFFFFFFFF AND PUSH20 0xFFFFFFFFFFFFFFFFFFFFFFFFFFFFFFFFFFFFFFFF AND DUP2 PUSH20 0xFFFFFFFFFFFFFFFFFFFFFFFFFFFFFFFFFFFFFFFF AND EQ JUMPDEST ISZERO ISZERO PUSH2 0x2F5 JUMPI PUSH1 0x40 MLOAD PUSH32 0x8C379A000000000000000000000000000000000000000000000000000000000 DUP2 MSTORE PUSH1 0x4 ADD DUP1 DUP1 PUSH1 0x20 ADD DUP3 DUP2 SUB DUP3 MSTORE PUSH1 0x1B DUP2 MSTORE PUSH1 0x20 ADD DUP1 PUSH32 0x596F7520646F6E2774206F776E2074686973206163636F756E74210000000000 DUP2 MSTORE POP PUSH1 0x20 ADD SWAP2 POP POP PUSH1 0x40 MLOAD DUP1 SWAP2 SUB SWAP1 REVERT JUMPDEST DUP2 ADDRESS PUSH20 0xFFFFFFFFFFFFFFFFFFFFFFFFFFFFFFFFFFFFFFFF AND BALANCE LT ISZERO ISZERO ISZERO PUSH2 0x384 JUMPI PUSH1 0x40 MLOAD PUSH32 0x8C379A000000000000000000000000000000000000000000000000000000000 DUP2 MSTORE PUSH1 0x4 ADD DUP1 DUP1 PUSH1 0x20 ADD DUP3 DUP2 SUB DUP3 MSTORE PUSH1 0x14 DUP2 MSTORE PUSH1 0x20 ADD DUP1 PUSH32 0x496E73756666696369656E742066756E64732160000000000000000000000000 DUP2 MSTORE POP PUSH1 0x20 ADD SWAP2 POP POP PUSH1 0x40 MLOAD DUP1 SWAP2 SUB SWAP1 REVERT JUMPDEST DUP1 PUSH20 0xFFFFFFFFFFFFFFFFFFFFFFFFFFFFFFFFFFFFFFFF AND PUSH1 0x2 PUSH1 0x0 SWAP1 SLOAD SWAP1 PUSH2 0x100 EXP SWAP1 DIV PUSH20 0xFFFFFFFFFFFFFFFFFFFFFFFFFFFFFFFFFFFFFFFF AND PUSH20 0xFFFFFFFFFFFFFFFFFFFFFFFFFFFFFFFFFFFFFFFF AND EQ ISZERO ISZERO PUSH2 0x41D JUMPI DUP1 PUSH1 0x2 PUSH1 0x0 PUSH2 0x100 EXP DUP2 SLOAD DUP2 PUSH20 0xFFFFFFFFFFFFFFFFFFFFFFFFFFFFFFFFFFFFFFFF MUL NOT AND SWAP1 DUP4 PUSH20 0xFFFFFFFFFFFFFFFFFFFFFFFFFFFFFFFFFFFFFFFF AND MUL OR SWAP1 SSTORE POP JUMPDEST DUP1 PUSH20 0xFFFFFFFFFFFFFFFFFFFFFFFFFFFFFFFFFFFFFFFF AND PUSH2 0x8FC DUP4 SWAP1 DUP2 ISZERO MUL SWAP1 PUSH1 0x40 MLOAD PUSH1 0x0 PUSH1 0x40 MLOAD DUP1 DUP4 SUB DUP2 DUP6 DUP9 DUP9 CALL SWAP4 POP POP POP POP ISZERO DUP1 ISZERO PUSH2 0x463 JUMPI RETURNDATASIZE PUSH1 0x0 DUP1 RETURNDATACOPY RETURNDATASIZE PUSH1 0x0 REVERT JUMPDEST POP DUP2 PUSH1 0x3 DUP2 SWAP1 SSTORE POP ADDRESS PUSH20 0xFFFFFFFFFFFFFFFFFFFFFFFFFFFFFFFFFFFFFFFF AND BALANCE PUSH1 0x4 DUP2 SWAP1 SSTORE POP POP POP JUMP JUMPDEST DUP2 PUSH1 0x0 DUP1 PUSH2 0x100 EXP DUP2 SLOAD DUP2 PUSH20 0xFFFFFFFFFFFFFFFFFFFFFFFFFFFFFFFFFFFFFFFF MUL NOT AND SWAP1 DUP4 PUSH20 0xFFFFFFFFFFFFFFFFFFFFFFFFFFFFFFFFFFFFFFFF AND MUL OR SWAP1 SSTORE POP DUP1 PUSH1 0x1 PUSH1 0x0 PUSH2 0x100 EXP DUP2 SLOAD DUP2 PUSH20 0xFFFFFFFFFFFFFFFFFFFFFFFFFFFFFFFFFFFFFFFF MUL NOT AND SWAP1 DUP4 PUSH20 0xFFFFFFFFFFFFFFFFFFFFFFFFFFFFFFFFFFFFFFFF AND MUL OR SWAP1 SSTORE POP POP POP JUMP JUMPDEST PUSH1 0x4 SLOAD DUP2 JUMP JUMPDEST PUSH1 0x3 SLOAD DUP2 JUMP JUMPDEST ADDRESS PUSH20 0xFFFFFFFFFFFFFFFFFFFFFFFFFFFFFFFFFFFFFFFF AND BALANCE PUSH1 0x4 DUP2 SWAP1 SSTORE POP JUMP JUMPDEST PUSH1 0x2 PUSH1 0x0 SWAP1 SLOAD SWAP1 PUSH2 0x100 EXP SWAP1 DIV PUSH20 0xFFFFFFFFFFFFFFFFFFFFFFFFFFFFFFFFFFFFFFFF AND DUP2 JUMP INVALID LOG1 PUSH6 0x627A7A723058 KECCAK256 GT 0xbd PUSH13 0xEBC0BCC9E4ADEC2C24478A7FA GAS 0xc7 LOG4 0xca GAS 0xf DUP8 PUSH12 0xD0ED95CEC106E63C00290000 "
				},
				"gasEstimates": {
					"creation": {
						"codeDepositCost": "284800",
						"executionCost": "324",
						"totalCost": "285124"
					},
					"external": {
						"": "184",
						"contractBalance()": "427",
						"deposit()": "20605",
						"lastToWithdraw()": "541",
						"lastWithdrawAmount()": "449",
						"setAccounts(address,address)": "40803",
						"withdraw(uint256,address)": "infinite"
					}
				},
				"methodIdentifiers": {
					"contractBalance()": "8b7afe2e",
					"deposit()": "d0e30db0",
					"lastToWithdraw()": "e15e1c95",
					"lastWithdrawAmount()": "b831461e",
					"setAccounts(address,address)": "43e02605",
					"withdraw(uint256,address)": "00f714ce"
				}
			},
			"userdoc": {
				"methods": {}
			}
		}
	}
}